//! # Genealogical Tree
//!
//! | pos     | height  | tx                                                                 |
//! |---------|---------|--------------------------------------------------------------------|
//! | origin  | 7575765 |                                                                    |
//! | grandpa | 7575766 | 0xc56be493f656f1c8222006eda5cd3392be5f0c096e8b7fb1c5542088c0f0c889 |
//! | uncle   | 7575766 |                                                                    |
//! | parent  | 7575767 |                                                                    |
//! | current | 7575768 | 0xfc836bf547f1e035e837bf0a8d26e432aa26da9659db5bf6ba69b0341d818778 |
pub const JSON: &'static str = r#"{
  "headers": [{
    "difficulty": "592101746",
    "extraData": "0xde830207028f5061726974792d457468657265756d86312e34312e30826c69",
    "gasLimit": 8000029,
    "gasUsed": 1804373,
    "hash": "0x253c1f8ed3051930949251bcf786d4ecfe379c001202d07aeb8a68ba15588f1d",
    "logsBloom": "0x0006000000400004000000000800000ac000000200208000040000100084410200017001004000090100600000002800000041020002400000000000200000c81080602800004000000200080020000828200000110320001000000008008420000000400200a0008c0000380410084040200201040001000014045011001010000408000000a80000000010020002000000049000000000800a5000080000000000008010000000820041040014000100000004000000000040000002000000000000221000404028000002048200080000000000000000000001000108204002000200000012000000808000008200a0020000001000800000000080000000",
    "miner": "0x05FC5a079e0583B8A07526023A16E2022c4C6296",
    "mixHash": "0xe582018f215ce844c7e0b9bd10ee8ab89cad57dc01f3aec080bff11134cc5573",
    "nonce": "0xe55fdb2d73c14cee",
    "number": 7575765,
    "parentHash": "0xccd3a54b1bb11a8fa7eb82c6885c3bdcc9884cb0229cb9a70683d58bfe78e80c",
    "receiptsRoot": "0x6c57de9ea8a275b131b344d60bbdef1ea1465753cba5924be631116fc9994d8b",
    "sha3Uncles": "0xec428257d3daf5aa3a394665c7ab79e14a51116178653038fd2d5c23bb011833",
    "size": 6923,
    "stateRoot": "0xbd3b97632b55686763748c69dec192fa2b5067c92cc0e3b5e19afad6bf43ed04",
    "timestamp": 1584984663,
    "totalDifficulty": "30168213795173501",
    "transactions": [
        "0x816c951e3f96234389c983b887a7a104f1cee53b23e19f9fd5dce422ad33f374",
        "0x9a5277e738f5d50487e5d08579201e400b6f4ddfa21c8f1b1c7126178e172823",
        "0xb1a70724872dd9e94f585db86337bb4fe6139880710f54e1ce2d3f2207259c91",
        "0x5ac9087ef4c4d1280bdca6df6db91eaa44e2cc1fb6c4ecd5c4c9b1c941be02d6",
        "0x4fa5f42866d41f64c4feb5e60455087a4352d124bea0b83627ae85a02c9dfbd4",
        "0x526cdd45293cd70374b553daaea67b977f9016e0487091243f080ce9e17f02e3",
        "0xb9ae13daf1c57677800b3fd22564313a91cbd80ff0784d73456054c5512a6b76",
        "0xca000efb290f1d3b350648c7afa53d155a332d9f6071f47f38038cf0309ec01e",
        "0xa8ed112853a381e42699b299a1445b9faaaa30ba2a99510ec97ea9b972d9882f",
        "0x670caf06d8e8ad7489ba8a87eb6564b3effa565dd2dc8aa1ce95e69ce13ee454",
        "0xc68c6802bb9427d6bee7a56b8292798c437711be722b6f8abec214cc255991bc",
        "0x5591557beb883e2802a0e8607e82641af391b9842e5a0c156caadd72bc1212cb",
        "0x5b5becfed42bc6ec5f981f85f6f05205b5ffeae898df05f4f6af879929a1c0b4",
        "0xbdaa2a6def3dd15fedb9c516329862036fa7d30e5d63163d446dd8b07d9537bc",
        "0x23c22a932ca746f50fc06198b4ad401f386c04ddc986f42cd0dc61f0dfa7d824",
        "0xedcc887a0b21b726c6fc785e7a1c8dcda71fa25a75951c27cbf5af216e5e5e97",
        "0x2d032d747b2cfa56a376436cb6f8478ad69ae44c2e25befa980c6994acb040a4",
        "0x3c9cd2eeacb0d9558039e7b35cefa09d12351574c77b667e4622aaca68324301",
        "0xec2fb403f16c17f0d38549b29a97661e396029c2fd66955c4e6ac1744797b4af",
        "0xebd70017f0b57f29897ad07dd791bf0c914eb0c90f8cb121d87604b6d60bbcfd",
        "0x6f1ccea6e904c2ee54850f3fb3dc4e4921ea036175c6372abf741d885b074891",
        "0xafda25ad361c2d045cf2ce7c255be3543cf6ea7379fe2c7fd74a36b5cc496a7f",
        "0x9113f23f53a9e44d05f37fc81998991da50f45019b87afb3b12146bf09bf5625",
        "0x53a2be10219d8a4d669b25bccb148b47712000ec51a1cd7b7fec186f808b4f20",
        "0x79464d92e3ded57b0c646aebec4f5b11176e41b71dbca5bc0e894a235534c87b",
        "0xf88568e427d20eff57deea8948eb2620cfdb5fd160267e535e4d29548a64d6ef"
    ],
    "transactionsRoot": "0x1d096373d65213a55a03f1edd066091ef245054ddbd827a4679f19983b2d8ae6",
    "uncles": [
        "0x8286fc6fef53855d41f9a27d11ab64e75945581d6cb50c796cc3ba4ded72f234",
        "0xb9bb37d83ce340003e7137181c69556a1698511d48ce020627085ba9f9b6bccb"
    ]
    }, {
    "difficulty": "592679970",
    "extraData": "0xde830207028f5061726974792d457468657265756d86312e34312e30826c69",
    "gasLimit": 8000029,
    "gasUsed": 1673785,
    "hash": "0xb49cc783d8da7896e5dc50fc2a927b80dcef6ebb36738a3f0aeaf3b4f970e768",
    "logsBloom": "0x00000000000000000000002040000000c000000000202010080002100084400000401001000000020000400040002000000000000002c040000809000000004010800020000040000000020a1002000040000000800100000000000000000000000000000200a0008000000800000804482000010400000000000010100010000000080000000001000000000000000000000480004004000008000000200000000000002200000000000000000000000000000000000200000000000000000002000002100000012000200000040008080001000000000800200000000060000108000080001000000002000000000000000000001000020010000000000000",
    "miner": "0x05FC5a079e0583B8A07526023A16E2022c4C6296",
    "mixHash": "0xd1716ffbdb6b77a6a1a76bca2e4b5c6c5079689c4402cc0df583c08737a3957e",
    "nonce": "0x1a711f7039202c30",
    "number": 7575766,
    "parentHash": "0x253c1f8ed3051930949251bcf786d4ecfe379c001202d07aeb8a68ba15588f1d",
    "receiptsRoot": "0xa4d62fe6b519fe3e2fbeb4862bb7151340c638f59dc5865974a4064d97d30b36",
    "sha3Uncles": "0x1dcc4de8dec75d7aab85b567b6ccd41ad312451b948a7413f0a142fd40d49347",
    "size": 5099,
    "stateRoot": "0x9a1a18d30c00565b3f3c4a13829c9ca4adabb3c0080bf707cf738e35c46cc4db",
    "timestamp": 1584984668,
    "totalDifficulty": "30168214387853471",
    "transactions": [
        "0x95a73724268d64574c3afe49541c85ecac9db6366f14b5be5b73b4b1b5884b20",
        "0x85fb2c818f65541be984d652ef7afafa75e70bb342883543b6ea69ae0e01880c",
        "0x79e9f7cf4e36f53f71091950c9c2c3a51c2372217931ba02ad6012bfdb9edee5",
        "0xc56be493f656f1c8222006eda5cd3392be5f0c096e8b7fb1c5542088c0f0c889",
        "0x3951aa8e77c661c8d024e81c11aa3cfb37af8f12cc0617c6e63333289dab99c3",
        "0xac34a6f44505cf7cd7b57f35778348d65d26f6ef1ef508374569aafb9e6e4da0",
        "0xd496c97a304ffdac18e802daf7c514c9ba4c262419c036d75da6c94a45216e25"
    ],
    "transactionsRoot": "0x770bedcea35a614a3bc56e5047c5731215a989380cef38bfc017ec8459d9af72",
    "uncles": []
    }, {
    "difficulty": "592679970",
    "extraData": "0xde830207028f5061726974792d457468657265756d86312e34312e30826c69",
    "gasLimit": 8000029,
    "gasUsed": 1673785,
    "hash": "0x44a9de57eb3fde9e2f11491bde0f6292ca533cd015d72a6ae877890c63c3c62f",
    "logsBloom": "0x00000000000000000000002040000000c000000000202010080002100084400000401001000000020000400040002000000000000002c040000809000000004010800020000040000000020a1002000040000000800100000000000000000000000000000200a0008000000800000804482000010400000000000010100010000000080000000001000000000000000000000480004004000008000000200000000000002200000000000000000000000000000000000200000000000000000002000002100000012000200000040008080001000000000800200000000060000108000080001000000002000000000000000000001000020010000000000000",
    "miner": "0x05FC5a079e0583B8A07526023A16E2022c4C6296",
    "mixHash": "0xff7a54c198bd9dd3fc363020e550dbfc633fccdad934eff4ff84850b3e39ed48",
    "nonce": "0x1a711f703aa5d304",
    "number": 7575766,
    "parentHash": "0x253c1f8ed3051930949251bcf786d4ecfe379c001202d07aeb8a68ba15588f1d",
    "receiptsRoot": "0xa4d62fe6b519fe3e2fbeb4862bb7151340c638f59dc5865974a4064d97d30b36",
    "sha3Uncles": "0x1dcc4de8dec75d7aab85b567b6ccd41ad312451b948a7413f0a142fd40d49347",
    "size": 549,
    "stateRoot": "0x9a1a18d30c00565b3f3c4a13829c9ca4adabb3c0080bf707cf738e35c46cc4db",
    "timestamp": 1584984668,
    "totalDifficulty": "30168214387853471",
    "transactionsRoot": "0x770bedcea35a614a3bc56e5047c5731215a989380cef38bfc017ec8459d9af72",
    "uncles": []
    }, {
    "difficulty": "592679970",
    "extraData": "0xde8302050d8f5061726974792d457468657265756d86312e33382e30826c69",
    "gasLimit": 8000029,
    "gasUsed": 3006750,
    "hash": "0x05f153ee818d06794a0fb0443bfc428e3cf68a96a30c24e88325f2aa1659294d",
    "logsBloom": "0x800400000200040000001040000004008000002200000000000000000584010000030009000000010800200000000000004008008002000000000000060000f0508020080200000000000908000000080800000000000400908000000000801000000000020060000c00002400000800402002000401000000142010510010000014080000008000000000000200020004000480010000008000000108010000000000000008100000004560001400010004000c0000000008000000000000000008010610000004a0a0010010000008000000000000000000000020090820400000000004000010000080000000000140000001000000002000000880000000",
    "miner": "0x635B4764D1939DfAcD3a8014726159abC277BecC",
    "mixHash": "0x8f99e71c2111c2cd241c29d2bddfbb5899a09fb9a6e453fe0aee22f939eb6b95",
    "nonce": "0x6ba0ad07a53bf14d",
    "number": 7575767,
    "parentHash": "0xb49cc783d8da7896e5dc50fc2a927b80dcef6ebb36738a3f0aeaf3b4f970e768",
    "receiptsRoot": "0x371ffbfd85a76511d9d6b1162f93cfe70e9d31aaa2773e035d84b94a2c6d4699",
    "sha3Uncles": "0x1dcc4de8dec75d7aab85b567b6ccd41ad312451b948a7413f0a142fd40d49347",
    "size": 9558,
    "stateRoot": "0x5df70e19f157bc2804aff4e17f752e3b57a77cb8ffa967e50ee9709a1f73a459",
    "timestamp": 1584984682,
    "totalDifficulty": "30168214980533441",
    "transactions": [
        "0x6006b1c1265972a54f7ec8c4ac8fbd35fb7ed52ee66665fd42f9e64f77e4bcce",
        "0x4b35da1c45e2580a3e660572b49e48f33388b2442ab3746c7ae766c05a96dec6",
        "0x62a6df70c5a4ab0e6e517350766d7b448dddbb3aa37dc45a1379283a3c9102a6",
        "0xe50b18f78ce68505bc669e787b0ed2689dac51242f7307f26f66851e7b891389",
        "0x74b71fb3dd0c700a5155b26c8ad029bf59cecd8963e01c33f540e519f510c636",
        "0x27a88727bdb2563605efe8e17317aca71f4c36a84d831270f4de601e69f73f17",
        "0xc2c9579283521736fd6383ce9ac06784f38598c007d72249c1d9b12969506806",
        "0x74309075e4298c727e81cbf6b3cd72e9b9567c57cfdeba0f3889b78e9c78f41d",
        "0x1ee59102ca21ad4d7bb2b15b32b623633b5ba60aca92837f83602f6450833379",
        "0x66768cb00d4b1c31d88640250a29e2d72d38ef58ce04679b90a5d849aea2ef83",
        "0xedcb83b51b0fc88b7903e5e095c9209a6ad40baf17d0cf4b102ebf91ecc19b6e",
        "0xd7ce3d140f47f64ea745e6ce1f0d7b5780b68a1fd79f2e55c81bec9de95d4dcc",
        "0xdb2fc1c754a6862300a7fe9607f5d5d93da3f924485590f0aacbff120a0ba0cd",
        "0x3f29dfc60161741ce54140c19b988d1d10ad1a6ab5a85acf611fba914d681bf1",
        "0x408d09c51a9d7fc85557e52f95ce69cedfa8503c36d1f021cbbec463a8f56eca",
        "0x2104f4f91de6f5247860a63047a95997c6ea3bea3eb218014d3f97af625a909f",
        "0x425d5c7645c2cedb58bdc96c357aace5271ca955021c91c7a3ac375bea1181b3",
        "0x013e2926a369761ab2759699076e9c930948e6c71d0fc50f6f24a8bf5fa97915",
        "0x5819783fc9a8276915ac67f3bec4e17c3b7a35d9390a7549f0187c7d011a4191",
        "0x349b6ef5d88b1e88e19a7be6345f2a9105763b8e1089770f4fb85590a2742d06"
    ],
    "transactionsRoot": "0x6d42a354ae9d5d9d103f640042889f06bc98217bf0d635fb39dd531120efe836",
    "uncles": []
    }, {
    "difficulty": "592969364",
    "extraData": "0xde830207028f5061726974792d457468657265756d86312e34312e30826c69",
    "gasLimit": 8000029,
    "gasUsed": 1933244,
    "hash": "0xda6db2ef04f5f7ba97b16de78b3706b174926168e3e6b83d4923b19188a07e4f",
    "logsBloom": "0x080040000000000000000020080000004000000000202010080000100004400000400001000000020000400040000000000000000000804000000900000000000000000000004000000003081000080000000000000000000000000000000000000000000200a0008010008800000804082000010000800000000010004000000080080000000001000000000000000000000000004004000008000040200000000000000200000000000000000000000000000000000200000000000000000002000002080000010002000000040008000001000000010800200000000060000000000000001080000000100000000000000000001000020000808000000000",
    "miner": "0x05FC5a079e0583B8A07526023A16E2022c4C6296",
    "mixHash": "0x9a39a843c6dd051877c97c90fada4f50976bbd33adb6cc341aadb0131e418731",
    "nonce": "0x6a8de7b9f4efeb04",
    "number": 7575768,
    "parentHash": "0x05f153ee818d06794a0fb0443bfc428e3cf68a96a30c24e88325f2aa1659294d",
    "receiptsRoot": "0xa190cfab34c8a3519edca74aeb813751e4af6863c8bdb4afb8c692872fa6c031",
    "sha3Uncles": "0x805fc9304943c784d4b9ed2c20383bc334a7ea4c8d046031d1fb986b224a7e2f",
    "size": 5809,
    "stateRoot": "0x7a9892ed9ab322eb44e564184377610645715f576ecc22706e7265e28ca870c8",
    "timestamp": 1584984686,
    "totalDifficulty": "30168215573502805",
    "transactions": [
        "0xf787cffa8a440cda4e2b58dbb8236b681e90403ea6dcd1249c8c13d26fb33f27",
        "0x68970867bf96af4d632fe7fdd317d35a8a4824c9fe189f4841624cd786f4d4d9",
        "0x2c96fae574a6dbf2043ae7f2f934a31cf5bf4380598414d19ff7883c22731d31",
        "0xfc836bf547f1e035e837bf0a8d26e432aa26da9659db5bf6ba69b0341d818778",
        "0x70456e7de520f7dd9dbd6c4bd209608bd5be8155e16b82c83ee0a2d53338e1c1"
    ],
    "transactionsRoot": "0xba329c4119380c14d9fbc91dcbef180d5b184514760e4fb70a35ba720958029c",
    "uncles": [
        "0x44a9de57eb3fde9e2f11491bde0f6292ca533cd015d72a6ae877890c63c3c62f"
    ]
  }]
}"#;

/// common receipt
pub const RECEIPT: &'static str = r#"{
  "index":"0x3",
  "proof":"0xf90639f90636b853f851a0e2dde80962d77a47a1eab063cc8a378f739d23df6e29593b9a213416656c68c180808080808080a02afdbac54a1d63d1329fd2ce2cac4041e26a23aee0509d76b23b0dbedf44a5f38080808080808080b8d3f8d180a068902a3cc3e2192a6ccc54eef093708d56e13136dd90b08efb0f1dc3305df2d7a085a0404ca58ca11c6e2d7dc0bdc7eacbfa284097940cd23f1a4200476c4ecd0fa0d569ad3746049c498094c5e3e1a28a498e5525732684eba723ff6539d3cac009a0385871245210d867025a2f2ea5143b884b67c3a2ba2f76561b982de230492012a086c057ea140bacf807b4c0d93efabf320ebe30a43d997259241832aea2ac26c6a02e10c5544b0b294153fafe7b444127463c08e9de37b60fc300070287d9b8d5b080808080808080808080b90509f9050620b90502f904ff018314ec7fb9010000000000000000000000002000000000400000000000201008000000000000000040000000000002000000000000000000000000000080400000080000000000000000000000000000000208100000000000000000000000000000000000000000000000020000000000000000000804080000000000000000000010000000000000000000000001000000000000000000000000004000000000000000200000000000000000000000000000000000000000000000000200000000000000000000000002000000000000000000040000000001000000000800200000000060000000000000000000000000000000000000000000000000020000000000000000f903f4f89b94b52fbe2b925ab79a821b261c82c5ba0814aaa5e0f863a0ddf252ad1be2c89b69c2b068fc378daa952ba7f163c4a11628f55a4df523b3efa00000000000000000000000002c7536e3605d9c16a7a3d7b1898e529396a65c23a0000000000000000000000000dbc888d701167cbfb86486c516aafbefc3a4de6ea00000000000000000000000000000000000000000000000000de0b6b3a7640000f87a94b52fbe2b925ab79a821b261c82c5ba0814aaa5e0f842a0cc16f5dbb4873280815c1ee09dbd06736cffcc184412cf7a71a0fdb75d397ca5a0000000000000000000000000dbc888d701167cbfb86486c516aafbefc3a4de6ea00000000000000000000000000000000000000000000000000de0b6b3a7640000f89b94b52fbe2b925ab79a821b261c82c5ba0814aaa5e0f863a0ddf252ad1be2c89b69c2b068fc378daa952ba7f163c4a11628f55a4df523b3efa0000000000000000000000000dbc888d701167cbfb86486c516aafbefc3a4de6ea00000000000000000000000000000000000000000000000000000000000000000a00000000000000000000000000000000000000000000000000de0b6b3a7640000f9011c94dbc888d701167cbfb86486c516aafbefc3a4de6ef863a038045eaef0a21b74ff176350f18df02d9041a25d6694b5f63e9474b7b6cd6b94a0000000000000000000000000b52fbe2b925ab79a821b261c82c5ba0814aaa5e0a00000000000000000000000002c7536e3605d9c16a7a3d7b1898e529396a65c23b8a00000000000000000000000000000000000000000000000000de0b6b3a7640000000000000000000000000000000000000000000000000000000000000000004000000000000000000000000000000000000000000000000000000000000000212ad7b504ddbe25a05647312daa8d0bbbafba360686241b7e193ca90f9b01f95faa00000000000000000000000000000000000000000000000000000000000000f9011c94b52fbe2b925ab79a821b261c82c5ba0814aaa5e0f863a09bfafdc2ae8835972d7b64ef3f8f307165ac22ceffde4a742c52da5487f45fd1a00000000000000000000000002c7536e3605d9c16a7a3d7b1898e529396a65c23a0000000000000000000000000dbc888d701167cbfb86486c516aafbefc3a4de6eb8a00000000000000000000000000000000000000000000000000de0b6b3a7640000000000000000000000000000000000000000000000000000000000000000004000000000000000000000000000000000000000000000000000000000000000212ad7b504ddbe25a05647312daa8d0bbbafba360686241b7e193ca90f9b01f95faa00000000000000000000000000000000000000000000000000000000000000",
  "header_hash":"0xb49cc783d8da7896e5dc50fc2a927b80dcef6ebb36738a3f0aeaf3b4f970e768"
}"#;

/// event logs
pub const EVENT_LOGS: &'static str = r#"{
  "logs": [
    {
      "address": "0xb52FBE2B925ab79a821b261C82c5Ba0814AAA5e0",
      "blockHash": "0xb49cc783d8da7896e5dc50fc2a927b80dcef6ebb36738a3f0aeaf3b4f970e768",
      "blockNumber": 7575766,
      "data": "0x0000000000000000000000000000000000000000000000000de0b6b3a7640000",
      "logIndex": 8,
      "removed": false,
      "topics": [
        "0xddf252ad1be2c89b69c2b068fc378daa952ba7f163c4a11628f55a4df523b3ef",
        "0x0000000000000000000000002c7536e3605d9c16a7a3d7b1898e529396a65c23",
        "0x000000000000000000000000dbc888d701167cbfb86486c516aafbefc3a4de6e"
      ],
      "transactionHash": "0xc56be493f656f1c8222006eda5cd3392be5f0c096e8b7fb1c5542088c0f0c889",
      "transactionIndex": 3,
      "id": "log_d6f43e1c"
    },
    {
      "address": "0xb52FBE2B925ab79a821b261C82c5Ba0814AAA5e0",
      "blockHash": "0xb49cc783d8da7896e5dc50fc2a927b80dcef6ebb36738a3f0aeaf3b4f970e768",
      "blockNumber": 7575766,
      "data": "0x0000000000000000000000000000000000000000000000000de0b6b3a7640000",
      "logIndex": 9,
      "removed": false,
      "topics": [
        "0xcc16f5dbb4873280815c1ee09dbd06736cffcc184412cf7a71a0fdb75d397ca5",
        "0x000000000000000000000000dbc888d701167cbfb86486c516aafbefc3a4de6e"
      ],
      "transactionHash": "0xc56be493f656f1c8222006eda5cd3392be5f0c096e8b7fb1c5542088c0f0c889",
      "transactionIndex": 3,
      "id": "log_a2379338"
    },
    {
      "address": "0xb52FBE2B925ab79a821b261C82c5Ba0814AAA5e0",
      "blockHash": "0xb49cc783d8da7896e5dc50fc2a927b80dcef6ebb36738a3f0aeaf3b4f970e768",
      "blockNumber": 7575766,
      "data": "0x0000000000000000000000000000000000000000000000000de0b6b3a7640000",
      "logIndex": 10,
      "removed": false,
      "topics": [
        "0xddf252ad1be2c89b69c2b068fc378daa952ba7f163c4a11628f55a4df523b3ef",
        "0x000000000000000000000000dbc888d701167cbfb86486c516aafbefc3a4de6e",
        "0x0000000000000000000000000000000000000000000000000000000000000000"
      ],
      "transactionHash": "0xc56be493f656f1c8222006eda5cd3392be5f0c096e8b7fb1c5542088c0f0c889",
      "transactionIndex": 3,
      "id": "log_acf4e896"
    },
    {
      "address": "0xdBC888D701167Cbfb86486C516AafBeFC3A4de6e",
      "blockHash": "0xb49cc783d8da7896e5dc50fc2a927b80dcef6ebb36738a3f0aeaf3b4f970e768",
      "blockNumber": 7575766,
      "data": "0x0000000000000000000000000000000000000000000000000de0b6b3a7640000000000000000000000000000000000000000000000000000000000000000004000000000000000000000000000000000000000000000000000000000000000212ad7b504ddbe25a05647312daa8d0bbbafba360686241b7e193ca90f9b01f95faa00000000000000000000000000000000000000000000000000000000000000",
      "logIndex": 11,
      "removed": false,
      "topics": [
        "0x38045eaef0a21b74ff176350f18df02d9041a25d6694b5f63e9474b7b6cd6b94",
        "0x000000000000000000000000b52fbe2b925ab79a821b261c82c5ba0814aaa5e0",
        "0x0000000000000000000000002c7536e3605d9c16a7a3d7b1898e529396a65c23"
      ],
      "transactionHash": "0xc56be493f656f1c8222006eda5cd3392be5f0c096e8b7fb1c5542088c0f0c889",
      "transactionIndex": 3,
      "id": "log_44dceebb"
    },
    {
      "address": "0xb52FBE2B925ab79a821b261C82c5Ba0814AAA5e0",
      "blockHash": "0xb49cc783d8da7896e5dc50fc2a927b80dcef6ebb36738a3f0aeaf3b4f970e768",
      "blockNumber": 7575766,
      "data": "0x0000000000000000000000000000000000000000000000000de0b6b3a7640000000000000000000000000000000000000000000000000000000000000000004000000000000000000000000000000000000000000000000000000000000000212ad7b504ddbe25a05647312daa8d0bbbafba360686241b7e193ca90f9b01f95faa00000000000000000000000000000000000000000000000000000000000000",
      "logIndex": 12,
      "removed": false,
      "topics": [
        "0x9bfafdc2ae8835972d7b64ef3f8f307165ac22ceffde4a742c52da5487f45fd1",
        "0x0000000000000000000000002c7536e3605d9c16a7a3d7b1898e529396a65c23",
        "0x000000000000000000000000dbc888d701167cbfb86486c516aafbefc3a4de6e"
      ],
      "transactionHash": "0xc56be493f656f1c8222006eda5cd3392be5f0c096e8b7fb1c5542088c0f0c889",
      "transactionIndex": 3,
      "id": "log_840077b9"
    }
  ]
}"#;
